:100000000C945D000C9485000C9485000C94850084
:100010000C9485000C9485000C9485000C9485004C
:100020000C9485000C9485000C9485000C9485003C
:100030000C9485000C9485000C9485000C9485002C
:100040000C94D5050C9485000C94A8020C94EB023A
:100050000C9485000C9485000C9485000C9485000C
:100060000C9485000C94850000000007000201003C
:100070000003040600000000000000000102040864
:100080001020408001020408102001020408102002
:10009000040404040404040402020202020203032E
:1000A0000303030300000000250028002B000000CC
:1000B0000000240027002A00AA0311241FBECFEF4E
:1000C000D8E0DEBFCDBF11E0A0E0B1E0EEE8F1E1A5
:1000D00002C005900D92A432B107D9F721E0A4E245
:1000E000B1E001C01D92AF3DB207E1F710E0CDE5F0
:1000F000D0E004C02197FE010E94BF08CC35D10793
:10010000C9F70E9401020C94C5080C94000061E03C
:10011000809100010E941A0160E08EE00E941A01A5
:1001200040E855E260E070E08CE291E00C94260338
:10013000CF92DF92EF92FF928EE00E948501BC0188
:10014000990F880B990B0E9476076B017C016093D5
:1001500028017093290180932A0190932B0120E0BC
:1001600030EC4FE754E40E94CC0620E030E04FE74B
:1001700053E40E942B08609324017093250180931F
:1001800026019093270122E030E0B701A6018CE21E
:1001900091E00E94C10563E071E08CE291E00E9471
:1001A0002204409124015091250160912601709113
:1001B000270122E030E08CE291E00E94C3056091CB
:1001C00024017091250180912601909127010E94C0
:1001D0003E0780910001FF90EF90DF90CF900C944C
:1001E000A201833081F028F4813099F08230A1F0AF
:1001F00008958630A9F08730B9F08430D1F4809129
:1002000080008F7D03C0809180008F778093800075
:10021000089584B58F7702C084B58F7D84BD08951D
:100220008091B0008F7703C08091B0008F7D809364
:10023000B0000895CF93DF9390E0FC01E458FF4FA6
:100240002491FC01E057FF4F8491882361F190E0F5
:10025000880F991FFC01E255FF4FC591D491FC0115
:10026000EC55FF4FA591B491611109C09FB7F89467
:100270008881209582238883EC912E230BC06230E5
:1002800061F49FB7F8948881322F30958323888357
:10029000EC912E2B2C939FBF06C08FB7F894E8816A
:1002A0002E2B28838FBFDF91CF9108951F93CF937B
:1002B000DF93282F30E0F901E859FF4F8491F901CD
:1002C000E458FF4FD491F901E057FF4FC491CC237C
:1002D000C1F0162F81110E94F100EC2FF0E0EE0F1B
:1002E000FF1FEC55FF4FA591B4919FB7F8941111E2
:1002F00004C08C91D095D82302C0EC91DE2BDC9306
:100300009FBFDF91CF911F9108958E3008F08E50DE
:100310002091020190E4299F900111248770822B83
:1003200080937C0080917A00806480937A00809131
:100330007A0086FDFCCF809178002091790090E0D2
:10034000922B08951F93CF93DF93182FEB0161E059
:100350000E941A01209711F460E004C0CF3FD1053C
:1003600039F461E0812FDF91CF911F910C945601F8
:10037000E12FF0E0E859FF4FE491E330F9F048F461
:10038000E130B9F0E230A1F584B5806284BDC8BD2A
:1003900034C0E630E9F0E73019F1E43049F58091F6
:1003A0008000806280938000D0938B00C0938A008D
:1003B00024C084B5806884BDC7BD1FC08091800003
:1003C000806880938000D0938900C093880015C016
:1003D0008091B00080688093B000C093B3000DC0DE
:1003E0008091B00080628093B000C093B40005C0DB
:1003F000C038D1050CF0B5CFAFCFDF91CF911F91B1
:1004000008950E941F060E948700C2EED2E00E945B
:1004100098002097E1F30E94E202F9CFFC012485C5
:100420003585F901E05CFF4F808191813296208112
:100430003181821B930B8F7399270895DC011C96E1
:10044000ED91FC911D97DF01A05CBF4F2D913C9178
:10045000119712968D919C9111972817390739F0B1
:100460008D919C91E80FF91F808190E008958FEFA6
:100470009FEF0895FC01A485B585FD01E05CFF4F69
:10048000208131813296808191812817390779F056
:1004900080819181A80FB91F8C91208131812F5FBC
:1004A0003F4F2F7333273183208390E008958FEFE0
:1004B0009FEF0895FC0181A1882329F0A489B589C3
:1004C0008C9186FFFBCF11A208950F931F93CF93BA
:1004D000DF93FC01A685B7858D01005C1F4FE80105
:1004E0008881998101968F739927AD014E5B5F4F8B
:1004F000EA012881398128173907D1F3E8012881D9
:100500003981A20FB31F6C93A685B785A05CBF4F3E
:1005100011969C938E93A689B7892C9181E090E0E7
:10052000078C02C0880F991F0A94E2F7822B8C93E4
:1005300081E081A30488F589E02D80818064808337
:1005400081E090E0DF91CF911F910F910895089580
:100550001F920F920FB60F9211242F934F935F9318
:100560008F939F93EF93FF938091C00082FD1CC0F7
:100570002091C6008091D2019091D3014091D40185
:100580005091D50101968F7399274817590771F03B
:10059000E091D201F091D301EE56FE4F208390936B
:1005A000D3018093D20102C08091C600FF91EF91E8
:1005B0009F918F915F914F912F910F900FBE0F9050
:1005C0001F9018958CE291E00E940E02892B11F089
:1005D0000C94A70208951F920F920FB60F92112448
:1005E0002F933F938F939F93EF93FF9320918E01CF
:1005F00030918F01809190019091910128173907D6
:1006000031F48091C1008F7D8093C10014C0E091CE
:100610009001F0919101E25BFE4F20818091900169
:100620009091910101968F739927909391018093F6
:1006300090012093C600FF91EF919F918F913F9180
:100640002F910F900FBE0F901F901895CF92DF92B1
:10065000EF92FF92CF93DF93EC016A017B0141158A
:10066000514E6105710509F1EC89FD8981E090E049
:1006700008A002C0880F991F0A94E2F7808360E007
:1006800079E08DE390E0A70196010E949D08DA01D0
:10069000C9010197A109B109B695A79597958795C5
:1006A0009C01211580E13807A8F0EC89FD891082B2
:1006B00060E874E88EE190E0A70196010E949D0831
:1006C000DA01C9010197A109B109B695A7959795D6
:1006D00087959C01E889F9893083EA89FB89208321
:1006E00019A2EE89FF89408181E090E09C010C8C89
:1006F00002C0220F331F0A94E2F7242B2083EE89D5
:10070000FF8940819C010D8C02C0220F331F0A9487
:10071000E2F7242B2083EE89FF8940819C010E8C17
:1007200002C0220F331F0A94E2F7242B2083EE89A4
:10073000FF8920810F8C02C0880F991F0A94E2F76D
:10074000809582238083DF91CF91FF90EF90DF909F
:10075000CF900895ECE2F1E01382128288EE93E0EC
:10076000A0E0B0E084839583A683B78389E091E01D
:100770009183808382E991E0958784878EE491E07C
:100780009787868785EC90E0918B808B84EC90E056
:10079000938B828B80EC90E0958B848B81EC90E046
:1007A000978B868B82EC90E0918F808F86EC90E027
:1007B000938F828F84E0848F83E0858F87E0868F9C
:1007C00085E0878F81E080A30895CF92DF92EF923A
:1007D000FF920F931F93CF93DF936C01EB017B018B
:1007E000E40EF51E00E010E0CE15DF0561F0699122
:1007F000D601ED91FC910190F081E02DC6010995A3
:10080000080F191FF1CFC801DF91CF911F910F91F0
:10081000FF90EF90DF90CF9008956115710579F00A
:10082000FB0101900020E9F73197AF01461B570B00
:10083000DC01ED91FC910280F381E02D099480E0D0
:1008400090E008950C940D04DC01ED91FC91019071
:10085000F081E02D09940F931F93CF93DF93EC0168
:100860006DE00E9424048C016AE0CE010E94240401
:10087000800F911FDF91CF911F910F9108958F925B
:100880009F92AF92BF92CF92DF92EF92FF920F931F
:100890001F93CF93DF93CDB7DEB7A1970FB6F89430
:1008A000DEBF0FBECDBF6C01142FE52FCB01022F91
:1008B00019A2223008F40AE07E0121E2E20EF11CC6
:1008C000802E912CA12CB12C612F7E2FA50194019B
:1008D0000E949D08029F1019112481E0E81AF10876
:1008E0001A3014F4105D01C0195CF7011083122F47
:1008F000E32FCA01232B242B252B31F7B701C60187
:100900000E940D04A1960FB6F894DEBF0FBECDBFB6
:10091000DF91CF911F910F91FF90EF90DF90CF90DB
:10092000BF90AF909F908F900895CF92DF92EF92FB
:10093000FF920F931F93CF93DF932115310581F41D
:10094000DC01ED91FC910190F081E02D642FDF91AD
:10095000CF911F910F91FF90EF90DF90CF9009946E
:100960002A30310501F577FF1DC06A017B01EC01DA
:100970006DE20E9424048C0144275527BA014C19CA
:100980005D096E097F092AE0CE010E943F04800FB5
:10099000911FDF91CF911F910F91FF90EF90DF900A
:1009A000CF9008952AE0DF91CF911F910F91FF9092
:1009B000EF90DF90CF900C943F049A01AB01770F3A
:1009C000660B770B0C9495047F928F929F92AF9257
:1009D000BF92CF92DF92EF92FF920F931F93CF932C
:1009E000DF938C016A017B01722E9A01AB01C70172
:1009F000B6010E949808882319F065E171E027C0CC
:100A000046015701E894B7F82FEF3FEF4FE75FE754
:100A1000C501B4010E94980881110DC02FEF3FEF6E
:100A20004FE75FE7C501B4010E94C70618161CF422
:100A300069E171E00CC02FEF3FEF4FE75FE4C701C2
:100A4000B6010E942608181694F46DE171E0C80101
:100A5000DF91CF911F910F91FF90EF90DF90CF909A
:100A6000BF90AF909F908F907F900C940D042FEFCC
:100A70003FEF4FE75FECC701B6010E94C70687FD55
:100A8000E4CF20E030E0A901C701B6010E94C7060B
:100A900087FF0AC06DE2C8010E942404EC01F7FA46
:100AA000F094F7F8F09402C0C0E0D0E0B12C60E020
:100AB00070E080E09FE37B1441F020E030E040E212
:100AC00051E40E94CC06B394F6CFA70196010E9490
:100AD0005B066B017C010E9445074B015C012AE02B
:100AE000AB01BC01C8010E943F04C80FD91F772089
:100AF000C9F1C501B4010E9474079B01AC01C70193
:100B0000B6010E945A066B017C0161E271E0C801E6
:100B10000E940D04C80FD91F20E030E040E251E4EC
:100B2000C701B6010E942B084B015C010E943E07E1
:100B30006B017C014AE050E0C8010E94DD04C80F4F
:100B4000D91FB601DD0C880B990B0E9476079B011B
:100B5000AC01C501B4010E945A066B017C017A9474
:100B60007110DACFCE01DF91CF911F910F91FF90DD
:100B7000EF90DF90CF90BF90AF909F908F907F903D
:100B800008950C94E4040F931F93CF93DF93EC012B
:100B90000E94E4048C01CE010E942B04800F911F5F
:100BA000DF91CF911F910F9108951F920F920FB671
:100BB0000F9211242F933F938F939F93AF93BF93E3
:100BC0008091D7019091D801A091D901B091DA011B
:100BD0003091D60123E0230F2D3720F40196A11D7B
:100BE000B11D05C026E8230F0296A11DB11D20935B
:100BF000D6018093D7019093D801A093D901B093E7
:100C0000DA018091DB019091DC01A091DD01B091CE
:100C1000DE010196A11DB11D8093DB019093DC01E3
:100C2000A093DD01B093DE01BF91AF919F918F91B1
:100C30003F912F910F900FBE0F901F9018957894B1
:100C400084B5826084BD84B5816084BD85B58260D1
:100C500085BD85B5816085BDEEE6F0E0808181606F
:100C60008083E1E8F0E0108280818260808380816F
:100C700081608083E0E8F0E0808181608083E1EB47
:100C8000F0E0808184608083E0EBF0E0808181602F
:100C90008083EAE7F0E080818460808380818260E5
:100CA00080838081816080838081806880831092CE
:100CB000C10008955058BB27AA270E9472060C94C1
:100CC000EC070E94DE0738F00E94E50720F039F4B7
:100CD0009F3F19F426F40C94DB070EF4E095E7FB34
:100CE0000C94D507E92F0E94FD0758F3BA17620745
:100CF00073078407950720F079F4A6F50C941F0874
:100D00000EF4E0950B2EBA2FA02D0B01B901900126
:100D10000C01CA01A0011124FF27591B99F0593F6A
:100D200050F4503E68F11A16F040A22F232F342FB2
:100D30004427585FF3CF469537952795A795F04000
:100D40005395C9F77EF41F16BA0B620B730B840B15
:100D5000BAF09150A1F0FF0FBB1F661F771F881FCD
:100D6000C2F70EC0BA0F621F731F841F48F4879525
:100D700077956795B795F7959E3F08F0B0CF939517
:100D8000880F08F09927EE0F9795879508950E9490
:100D9000B10708F481E008950E94E0060C94EC0786
:100DA0000E94E50758F00E94DE0740F029F45F3FFB
:100DB00029F00C94D50751110C9420080C94DB07F2
:100DC0000E94FD0768F39923B1F3552391F3951B16
:100DD000550BBB27AA2762177307840738F09F5F5C
:100DE0005F4F220F331F441FAA1FA9F335D00E2EC9
:100DF0003AF0E0E832D091505040E695001CCAF736
:100E00002BD0FE2F29D0660F771F881FBB1F2617F8
:100E100037074807AB07B0E809F0BB0B802DBF01CF
:100E2000FF2793585F4F3AF09E3F510578F00C949E
:100E3000D5070C9420085F3FE4F3983ED4F38695E1
:100E400077956795B795F7959F5FC9F7880F911DBF
:100E50009695879597F90895E1E0660F771F881FAB
:100E6000BB1F621773078407BA0720F0621B730B5E
:100E7000840BBA0BEE1F88F7E09508950E94450792
:100E80006894B1110C94200808950E94050888F018
:100E90009F5798F0B92F9927B751B0F0E1F0660F3E
:100EA000771F881F991F1AF0BA95C9F714C0B1307F
:100EB00091F00E941F08B1E008950C941F08672F5D
:100EC000782F8827B85F39F0B93FCCF386957795AE
:100ED0006795B395D9F73EF4909580957095619597
:100EE0007F4F8F4F9F4F0895E89409C097FB3EF4C2
:100EF00090958095709561957F4F8F4F9F4F992367
:100F0000A9F0F92F96E9BB279395F69587957795E4
:100F10006795B795F111F8CFFAF4BB0F11F460FFA4
:100F20001BC06F5F7F4F8F4F9F4F16C0882311F0FC
:100F300096E911C0772321F09EE8872F762F05C010
:100F4000662371F096E8862F70E060E02AF09A95AB
:100F5000660F771F881FDAF7880F9695879597F9A0
:100F60000895990F0008550FAA0BE0E8FEEF16163A
:100F70001706E807F907C0F012161306E407F5078D
:100F800098F0621B730B840B950B39F40A2661F001
:100F9000232B242B252B21F408950A2609F4A140A4
:100FA000A6958FEF811D811D089597F99F6780E8B1
:100FB00070E060E008959FEF80EC089500240A94AB
:100FC0001616170618060906089500240A94121624
:100FD0001306140605060895092E0394000C11F457
:100FE000882352F0BB0F40F4BF2B11F460FF04C004
:100FF0006F5F7F4F8F4F9F4F089557FD9058440F5D
:10100000551F59F05F3F71F04795880F97FB991F67
:1010100061F09F3F79F08795089512161306140624
:10102000551FF2CF4695F1DF08C0161617061806B1
:10103000991FF1CF86957105610508940895E8948C
:10104000BB2766277727CB0197F908950E94B10740
:1010500008F48FEF08950E943E080C94EC070E945C
:10106000DE0738F00E94E50720F0952311F00C947C
:10107000D5070C94DB0711240C9420080E94FD076F
:1010800070F3959FC1F3950F50E0551F629FF001DB
:10109000729FBB27F00DB11D639FAA27F00DB11DF4
:1010A000AA1F649F6627B00DA11D661F829F22277D
:1010B000B00DA11D621F739FB00DA11D621F839F04
:1010C000A00D611D221F749F3327A00D611D231FDA
:1010D000849F600D211D822F762F6A2F11249F5728
:1010E00050409AF0F1F088234AF0EE0FFF1FBB1F2B
:1010F000661F771F881F91505040A9F79E3F5105EA
:1011000080F00C94D5070C9420085F3FE4F3983EE0
:10111000D4F3869577956795B795F795E7959F5F93
:10112000C1F7FE2B880F911D9695879597F9089525
:101130000E94B107880B990B0895A1E21A2EAA1BF1
:10114000BB1BFD010DC0AA1FBB1FEE1FFF1FA21777
:10115000B307E407F50720F0A21BB30BE40BF50B74
:10116000661F771F881F991F1A9469F760957095FD
:10117000809590959B01AC01BD01CF010895EE0FC4
:0E118000FF1F0590F491E02D0994F894FFCF25
:10118E000B00012000000000006502E5030E023A8C
:10119E00021E025A026E616E00696E66006F7666FE
:0411AE00002E00000F
:00000001FF
